:020000040002F8
:10600000209B0020C1630200C9630200CB63020031
:10601000CD630200CF630200D163020000000000E4
:10602000000000000000000000000000D363020038
:10603000D563020000000000D7630200D9630200AC
:10604000C9700200DB630200117A0200DB63020008
:10605000DB630200DB630200896D0200DB63020088
:10606000DB630200DB630200DB630200DB63020030
:10607000DB630200DB630200DB630200DB63020020
:10608000DB6302006D710200DB630200DB63020070
:10609000B7760200DB630200BF760200DB6302001A
:1060A000DB630200DB630200DB630200DB630200F0
:1060B000DB630200DB630200000000000000000060
:1060C000DB630200DB630200DB630200DB630200D0
:1060D000A1710200DB630200DB630200000000002C
:1060E00000000000000000000000000000000000B0
:1060F00000000000000000000000000000000000A0
:10610000000000000000000000000000000000008F
:10611000000000000000000000000000000000007F
:10612000000000000000000000000000000000006F
:10613000000000000000000000000000000000005F
:10614000000000000000000000000000000000004F
:10615000000000000000000000000000000000003F
:10616000000000000000000000000000000000002F
:10617000000000000000000000000000000000001F
:10618000000000000000000000000000000000000F
:1061900000000000000000000000000000000000FF
:1061A00000000000000000000000000000000000EF
:1061B00000000000000000000000000000000000DF
:1061C00000000000000000000000000000000000CF
:1061D00000000000000000000000000000000000BF
:1061E00000000000000000000000000000000000AF
:1061F000000000000000000000000000000000009F
:10620000DFF80CD000F0B0FC00480047D1130300C9
:10621000209B002030B450E8012F93B2C48923445E
:106220008489A34228BF1B1B0489A34202BFBFF37A
:106230002F8F002007E0C3EA020340E80134002C5E
:10624000E9D14FF001000A6030BC704750E8012FDF
:10625000C2EA024240E801210029F7D1704730B478
:1062600050E8022F1FFAA2F3C488A34202BFBFF373
:106270002F8F00200DE0C48923448489A34228BFC6
:106280001B1BC2EA034340E80234002CE8D14FF064
:1062900001000A6030BC704750E8022FC2EA224277
:1062A00040E802210029F7D17047034653E8022F46
:1062B000D988B2EB324F4FF0000017BF92B241EADB
:1062C000014142EA014104E05A68B2EB324F08BF93
:1062D000012043E80212002AE8D1704730B4044696
:1062E00054E8000F0D4644E80053002BF8D1156028
:1062F00030BC704730B4044654E8000F40EA010552
:1063000044E80053002BF7D1156030BC704730B41F
:10631000044654E8000F00EA010544E80053002B4E
:10632000F7D1156030BC704730B4044654E8000F14
:1063300080EA010544E80053002BF7D1156030BC1A
:10634000704730B4044654E8000F00EB010544E800
:106350000053002BF7D1156030BC704730B40446B1
:1063600054E8000FA0EB010544E80053002BF7D1DF
:10637000156030BC704770B404464FF0000054E81C
:10638000006F0D68AE4207BF44E80023012044E8D7
:1063900000630E60002B1CBF0020F0E770BC70474C
:1063A00030B4044654E8000F88422CBF451A054615
:1063B00044E80053002BF5D1156030BC7047000055
:1063C0000648804706480047FEE7FEE7FEE7FEE78F
:1063D000FEE7FEE7FEE7FEE7FEE7FEE7D97602000E
:1063E000016202002DE9F05F0546002092469B46BF
:1063F00088460646814640241BE0284641464746DB
:10640000224600F08DF953465A46C01A914110D3E6
:1064100011461846224600F016F82D1A67EB0108BF
:106420004F4622460120002100F00DF817EB00092D
:106430004E41201EA4F10104DFDC484631462A46C5
:106440004346BDE8F09F202A04DB203A00FA02F11F
:10645000002070479140C2F1200320FA03F3194352
:106460009040704700487047240404000649074ADA
:106470000868504343F239021044086040087047EE
:106480000149086070470000E82D00206D4EC641AC
:1064900040EA01039B0703D009E008C9121F08C0A6
:1064A000042AFAD203E011F8013B00F8013B521E26
:1064B000F9D27047D2B201E000F8012B491EFBD29D
:1064C00070470022F6E710B513460A4604461946FF
:1064D000FFF7F0FF204610BD30B505462A460B46B3
:1064E00012F8010B13F8014B08B1A042F8D01CB10F
:1064F000002802D06D1CF1E7284630BD10B50446D7
:1065000004E00B7800F8013B03B1491C521EF8D29D
:10651000204610BD421C10F8011B0029FBD1801A37
:10652000704730B504460020034600E05B1C9342F0
:1065300003D2E05CCD5C401BF8D030BD034611F8BF
:10654000012B00F8012B002AF9D11846704730B50D
:1065500005460020034600E05B1C934205D2EC5C3C
:10656000C85C201A01D1002CF6D130BD70B50646AA
:1065700001F068FB046805460A220021304600F05D
:10658000DFF82C6070BD2DE9FE4F81EA030404F0B2
:10659000004421F0004100944FF0000B23F0004331
:1065A00050EA01045ED052EA03045BD0C3F30A54FC
:1065B000C1F30A552C44A4F2F3340194A0FB025415
:1065C000C1F3130141F48011C3F3130343F48013A7
:1065D00001FB024400FB034E840A970A44EA8154FB
:1065E00047EA8357A4FB076802958D0A05FB0785D8
:1065F0004FEA932C04FB0C542705029D4FEA0658E2
:1066000047EA1637B5EB08056EEB070C870E920EBE
:1066100047EA811742EA8312A7FB0201B6EB0B019E
:1066200064EB00042B0D43EA0C335E1844EB1C5062
:10663000DA465146E7FB0201C5F313044FEA0B3378
:1066400043EA14534FEA0432019C43EA0603A4F1DF
:106650000C040294009CCDE900B400F0C8F803B02B
:10666000BDE8F08F00200146F9E70EB540F2334156
:1066700002910021CDE900110A460B4600F0B7F85F
:1066800003B000BD70B5C1F30A5201F0004500240B
:10669000C1F3130140F2FF3341F480119A4201DA51
:1066A000002070BD40F233439A42A2F2334203DC31
:1066B000524200F035F800E090402C43F1D04042C7
:1066C00070BDC1F30A5210B5C1F3130140F2FF339C
:1066D00041F480119A4201DA002010BD40F23343A8
:1066E0009A42A2F2334203DC524200F019F810BD84
:1066F000904010BD30B50B460146002020220124F9
:1067000009E021FA02F59D4205D303FA02F5491B7F
:1067100004FA02F52844151EA2F10102F1DC30BD95
:10672000202A04DB203A21FA02F00021704721FAE6
:1067300002F3D040C2F1200291400843194670474D
:106740002DE9F04791460E4680460446002514F890
:10675000017B2FB1FFF786FE0068C05DC007F6D150
:106760002B2F02D02D2F1ED0641E4A4631462046C4
:1067700000F01EFA26B13268A24201D1C6F80080AC
:106780006A054FF0020418D50023D0EB030563EB34
:1067900001025D1B934109DB0023D0EB030063EB97
:1067A0000101BDE8F08745F48065DEE701F04AFAB3
:1067B000046000204FF00041F3E7021E71F1000277
:1067C000EFDA01F03FFA04604FF0FF304108E8E7EC
:1067D00010B5141E73F1000408DA401C41F10001E9
:1067E00092185B411A4301D120F0010010BD2DE940
:1067F000F04D92469B4611B1B1FA81F202E0B0FA37
:1068000080F220329046FFF71EFE04460F4640EA13
:106810000A0041EA0B0153465A46084313D0114679
:1068200053EA010019D0C8F140025046FFF778FF43
:1068300005460E46504659464246FFF704FE0843B9
:1068400005D0012004E020463946BDE8F08D002047
:10685000054346EAE0762C4337430A986305E40A89
:10686000A0EB08000022FD0A44EA47540A3002D592
:1068700000200146E9E7010510196941DDE90845F5
:1068800000196941BDE8F04DA2E72DE9FE4F8046B1
:1068900081EA0300C00F0C46009021F0004123F074
:1068A0000045B8EB0200A94105D24046214690467A
:1068B0001C460B46024623F00040104347D0270DEC
:1068C000C7F30A00C3F30A510290401A019040280E
:1068D0006BDAC3F3130040F4801B0098924620B19A
:1068E0000023D2EB030A63EB0B0B01985946C0F16E
:1068F00040025046FFF7A7FD06460D465046594652
:10690000019A00F043F910EB08006141002487EA86
:10691000115284EAE7731A4340D0009A62B3019A95
:10692000012A4FEA075215DC001B61EB02014FF010
:10693000004202EA0752CDE90042001C41F58011F5
:1069400032462B46FFF753FF03B0BDE8F08F4046B9
:106950002146F9E7001B61EB0201001C41F58013A1
:1069600000185B412018A2F5001747EB030140EA2D
:10697000D570B6196D4111E06D084FEA360645EA4B
:10698000C0754FEA0752001B61EB0201001C41F584
:10699000801149084FEA30000019514132462B4618
:1069A00003B0BDE8F04FFFF713BF0098012240008D
:1069B0000023D0EB020263EBE073009821464FEA1C
:1069C000E074B8EB000061EB0401E9E783F00043F9
:1069D0005BE781F0004158E72DE9F04D81EA0304BF
:1069E00004F0004B21F0004514464FF0000A23F05C
:1069F000004150EA050220D054EA01021DD0C5F33F
:106A00000A570246C5F31303C1F31300C1F30A5634
:106A100040F4801543F48013A7EB0608101BD646FC
:106A200008F2FD3873EB050002D308F1010801E01C
:106A300092185B41B8F1000F03DA00200146BDE86F
:106A4000F08D00204FF48011064684460EE0171B9F
:106A500073EB050705D3121B63EB050306434CEAF2
:106A6000010C49084FEA300092185B4150EA0107D7
:106A7000EDD152EA030012D082EA040083EA050154
:106A8000084305D0101BAB4106D20122002306E0CB
:106A900000224FF0004302E06FF0010253101AEBA6
:106AA00006004CEB085110EB0A0041EB0B01BDE86E
:106AB000F04DFFF78DBE70B521F0004303430CD0BD
:106AC000C1F30A550024D5EB040564EB0403D61783
:106AD000AD1AB34102DB0020014670BD201841EB26
:106AE000025170BD0EB5C10F80EAE0700844CA07BC
:106AF000002140F233438DE80E000A460B46FFF7B3
:106B000076FE03B000BDC1F30A52C1F3130140F297
:106B1000FF3341F480119A4202DA002001467047A7
:106B200040F233439A42A2F2334202DC5242FFF770
:106B3000F7BDFFF788BC000030B5041E71F10004FA
:106B400004DB4FF00044404264EB0101141E73F17A
:106B5000000405DB1C464FF00043524263EB040384
:106B6000994208BF904230BD064C074D06E0E068F0
:106B700040F0010394E8070098471034AC42F6D384
:106B8000FFF742FBDC120400FC120400202A06DBA3
:106B9000CB17203A41FA02F043EAE07306E041FAEB
:106BA00002F3D040C2F120029140084319467047D9
:106BB0002DE9F74F4FF00009009C1546CA4614F81E
:106BC000010B302801D0ADB115E014F8010B4FF0E6
:106BD0000109782803D0582801D04DB10BE00DB140
:106BE000102D08D14FF00009102514F8010B02E018
:106BF000082500E00A2500273E46B8464FEAE57B17
:106C000016E0A5FB07230BFB073105FB080005FB7E
:106C10000616030CD71846F100061FFA80F8381E36
:106C20004FF0010976F5803000D3CA4614F8010B05
:106C3000294600F06FF80028E3DA019838B1B9F17D
:106C4000000F01D0641E00E0009C01980460BAF1BE
:106C5000000F08D000F0F6FF02210160C81E0146B7
:106C600003B0BDE8F08F310441EA174148EA07401C
:106C7000F6E72DE9F04D00231A461B1A8A4103DB83
:106C800000200146BDE8F08DC1F30A52C1F31301A3
:106C900041F480154FF0000BD10702D100186D416F
:106CA000521E0027044640F2FF11384601EB620AEB
:106CB0003E468046024600204FF48011FFF730FD2B
:106CC000C2197141BB1846EB0100B4EB030C75EB24
:106CD000000C04D3E41A65EB000517460E46241990
:106CE00008F101006D4180463428E3DDF91946EBD7
:106CF0000600091BA84103D24FF0FF32134601E002
:106D0000002213461BEB070046EB0A51BDE8F04D8D
:106D1000FFF75EBD3A2800D2303820F02002412A29
:106D200001D3A2F13700884201D34FF0FF30704702
:106D300070B58C1810F8015B15F0070301D110F83D
:106D4000013B2A1106D110F8012B03E010F8016B6A
:106D500001F8016B5B1EF9D12B0705D40023521EED
:106D60000DD401F8013BFAE710F8013BCB1A921C55
:106D700003E013F8015B01F8015B521EF9D5A14253
:106D8000D8D3002070BD00002DE9F04F89B0002756
:106D9000002008904FF4807007900126002412E034
:106DA00007980DF0E9FC40B100BF7B480068304017
:106DB00018B107980DF0D2FC374376000798001DF4
:106DC00080B20790641C082CEAD34FF4BE700DF01B
:106DD000D3FC50B14FF4BE700DF0C0FC47F000473B
:106DE00008AA012100200DF09FFCF8B200B3012693
:106DF00000241BE006EA0700B0B100BF674850F866
:106E00002400C0F30420804600BF644850F82400EA
:106E1000C0F301408146204605F07CF9054615B1D6
:106E200049464046A84700BF7600641C082CE1D3C1
:106E300007F0004000287DD0002006900590002536
:106E400005E04FF0FF3004A941F825006D1C002D2E
:106E5000F7D000BF0020069000245FE05048005D9E
:106E60000390039820F0C0094D480057401C0028AB
:106E700053D004A948460CF04FFA00284DD003988F
:106E80004FEA901A484605F04DF9804605F042F960
:106E90000290029810B9BAF1030F3DD1BAF1030F75
:106EA00003D105A948460CF042FA00BF00BF4FF0DD
:106EB000A041084600F5E06151F82910C1F30148EE
:106EC00000BF08A948460CF027FA8346BBF1000F23
:106ED00002D0B8F1020F05D0BBF1000F1BD1B8F101
:106EE000030F18D1BAF1030F0FD1B8F1020F01D17E
:106EF000032000E002200190484601990DF0E4FBD8
:106F00000698401CC0B2069000BF029818B15146C6
:106F10004846029A904700BF00BF641C042C9DD3D2
:106F2000069888B34FF0010803AA012100200DF054
:106F3000FBFB00E02DE000250BE003A850F8250046
:106F400008A951F82510884202D04FF0000802E04D
:106F50006D1C002DF1D000BFB8F1000F02D0002051
:106F6000069010E000250CE003A850F8250008A9C1
:106F700041F8250005A850F8250004A941F825008E
:106F80006D1C002DF0D000BF069800287FF462AF82
:106F900000BF09B0BDE8F08F0463004010650040F9
:106FA000784700202DE9F041C0B005460C46164652
:106FB0001F46DDF81881402C06D91BAA2146284619
:106FC00000F03EF91BAD1424402130A8FFF779FAF8
:106FD000402120A8FFF775FA2246294630A8FFF77E
:106FE00057FA2246294620A8FFF752FA00200CE063
:106FF00030A9095C81F0360130AA115420A9095C3E
:1070000081F05C0120AA1154401C4028F0DB01A84B
:1070100000F002FB402230A901A800F031F93A4605
:10702000314601A800F02CF9414601A800F014FBFC
:1070300001A800F0F1FA402220A901A800F020F9EF
:107040001422414601A800F01BF9414601A800F0B6
:1070500003FB40B0BDE8F08100F01F020121914028
:10706000024A430942F823107047000080E200E022
:1070700000F01F02012191404209920002F1E0223A
:10708000C2F800117047000000F01F02012191407A
:10709000024A430942F823107047000000E200E072
:1070A00010B5002807DA4A07140E054A00F00F034E
:1070B0001B1FD45403E04A07130E024A135410BD99
:1070C00018ED00E000E400E010B54FF480700CF023
:1070D00056FB80B14FF480700CF05AFB01200CF08D
:1070E00061FB2048407930B901201E4948710846AB
:1070F0000168002088474FF482700CF040FB50B1CB
:107100004FF482700CF044FB02200CF04BFB15484E
:107110000168012088474FF488700CF030FB50B1B3
:107120004FF488700CF034FB10200CF03BFB0D4842
:107130000168022088474FF486700CF020FB80B174
:107140000020094908604FF486700CF021FB0820EC
:107150000CF028FB002003498871084601680320D1
:10716000884710BD682C0020340C004010B500206A
:107170000949086000210948C0F84411C0F84811C5
:10718000C0F84C1100200549C1F8000102493C3902
:10719000086012F0EBFD10BD4011014000100140ED
:1071A00010B504220021024807F000FF10BD0000C6
:1071B0000040024010B500F033FC10BD2DE9F0474F
:1071C000074688461646C24607EB47011B4800EBB8
:1071D000C109D9F8140020B1012811D0022826D104
:1071E0001EE0484600F054FC0546B54201D200249A
:1071F00005E0344632465146484600F090FC18E01F
:10720000484600F045FC0546B54201D2284600E05C
:107210003046044622465146484600F080FC08E0CD
:1072200032465146484600F041FC044601E0002445
:1072300000BF00BF2046BDE8F0870000EC500020F2
:10724000F0B59AB005460E461746684600F0E4F9D8
:10725000044614B120461AB0F0BD324629466846AD
:1072600000F00EF804460CB12046F4E739466846B3
:1072700000F0F2F904460CB12046ECE70020EAE702
:1072800070B504460D4616460EB9002070BD04B117
:107290000DB90120FAE7206E10B103206066F5E712
:1072A000606E08B1606EF1E71CE02878B4F91C202C
:1072B00091B2491C09B2A18304F11E01885460698E
:1072C00008306061606930B9A069401CA061A069A4
:1072D00008B901206066A08B402802D1204600F04A
:1072E00077F86D1C301EA6F1010602D0606E0028F2
:1072F000DBD00020CAE710B50446B4F91C003728DB
:107300002BDD8021B4F91C2090B2401C00B2A08378
:1073100004F11E00815409E00021B4F91C2090B250
:10732000401C00B2A08304F11E008154B4F91C007B
:107330004028F1DB204600F04BF809E00021B4F9C9
:107340001C2090B2401C00B2A08304F11E008154A6
:10735000B4F91C003828F1DB18E08021B4F91C20B6
:1073600090B2401C00B2A08304F11E00815409E0D9
:107370000021B4F91C2090B2401C00B2A08304F19B
:107380001E008154B4F91C003828F1DBA069010EFD
:1073900084F85610A069010C84F85710208B010A5C
:1073A00084F85810217E84F859106069010E84F821
:1073B0005A106069010C84F85B10A08A010A84F8F5
:1073C0005C10217D84F85D10204600F001F810BDAE
:1073D0002DE9F047D4B00146DFF838A2DAE900C859
:1073E000DAE9029ACDF840C151AAA2E800070020CC
:1073F00032E001F11E0C1CF820C04FEA0C6C4DF875
:1074000020C05DF820804FF0010C0CEB800901F1E9
:107410001E0C1CF809C048EA0C4C4DF820C05DF861
:1074200020804FF0020C0CEB800901F11E0C1CF8BF
:1074300009C048EA0C2C4DF820C05DF820C04FF080
:10744000030808EB800901F11E0818F809804CEACE
:10745000080C4DF820C0401C1028CADB102032E078
:10746000A0F1030C5DF82CC0A0F108085DF828809D
:107470008CEA080CA0F10E085DF828808CEA080C54
:10748000A0F110085DF828808CEA080C4FEA4C083F
:10749000A0F1030C5DF82CC0A0F108095DF829905B
:1074A0008CEA090CA0F10E095DF829908CEA090C10
:1074B000A0F110095DF829908CEA090C48EADC7CFF
:1074C0004DF820C0401C5028CADB0B684A688C6805
:1074D000CD680E6900201BE04FEA431C4CEAD369DB
:1074E00002EA040C25EA02084CEA080CCC44B44435
:1074F0005DF82080C444DDF840810CEB08072E467F
:1075000025464FEA827C4CEA92041A463B46401CD0
:107510001428E1DB142019E04FEA431C4CEAD3683D
:1075200082EA040C8CEA050CC444B4445DF8208063
:10753000C444DDF844810CEB08072E4625464FEA8B
:10754000827C4CEA92041A463B46401C2828E3DB26
:1075500028201FE04FEA431C4CEAD36802EA040CDF
:1075600002EA05094CEA090C04EA05094CEA090C8F
:10757000C444B4445DF82080C444DDF848810CEB79
:1075800008072E4625464FEA827C4CEA92041A46AA
:107590003B46401C3C28DDDB3C2019E04FEA431C05
:1075A0004CEAD36882EA040C8CEA050CC444B44467
:1075B0005DF82080C444DDF84C810CEB08072E46B2
:1075C00025464FEA827C4CEA92041A463B46401C10
:1075D0005028E3DBD1F800C09C44C1F800C0D1F8CA
:1075E00004C09444C1F804C0D1F808C0A444C1F850
:1075F00008C0D1F80CC0AC44C1F80CC0D1F810C020
:10760000B444C1F810C04FF0000CA1F81CC054B035
:10761000BDE8F08704D60300014609B90120704790
:1076200000204861886188830848086008484860ED
:107630000648C04388600648C043C86005480861E2
:1076400000200866486600BFE9E70000012345679F
:1076500089ABCDEFF0E1D2C370B504460E4604B15C
:107660000EB9012070BD606E08B1606EFAE7206E41
:1076700080B92046FFF73FFE002504E0002104F119
:107680001E0041556D1C402DF8DB00206061A0619B
:107690000120206600250AE0A81054F8200005F01B
:1076A0000301C1F10301C900C84070556D1C142DC0
:1076B000F2DB0020D6E710B512F05EFA10BD10B56F
:1076C0000DF0DEFF10BD0000014802490860704760
:1076D0000090D003602D002010B506F0A1FC28B169
:1076E00092480088C0F304209149086006F0ECFC41
:1076F00010B190489049486706F00EFD30B18B48B4
:10770000E0380068C0F342308C49086006F02EFD76
:1077100028B18B48006820F080708949086006F025
:107720003DFD48B10020874908604FF08041C1F815
:1077300010018249091F086006F05AFD18B10320A4
:107740007E496431086006F06BFD68B105207E4912
:10775000086001207C497831086000207A490831AE
:1077600008603F20091F086006F072FD002855D010
:107770006E48E0300068754908606C48E430006885
:10778000091D08606948E8300068091D08606748FD
:10779000EC300068091D08606448F0300068091D7D
:1077A00008606248F4300068091D08605F48F830DE
:1077B00000686649203108605C48FC300068091D9B
:1077C000086063480068091D08606148001D006882
:1077D000091D08605E4808300068091D08605C48A3
:1077E0000C300068091D086059481030006857497E
:1077F00040310860564814300068091D086054483C
:1078000018300068091D086051481C300068091DC7
:1078100008604F4820300068091D086006F0D6FB5C
:1078200030B14248CC38006800F04F004949086048
:1078300006F020FC40B14848006800F0010018B193
:107840006FF001004449086006F056FC28B1434837
:10785000006840F480604149086039487438006825
:1078600040F4700036497439086000BF00BF00BFA3
:10787000BFF34F8F00BF00BF00BF00BF00BF00BFFE
:10788000BFF36F8F00BF00BF00BF3548006800F036
:10789000004028B93248001D006800F00040E8B3FD
:1078A00001203049086000BF2F4800680028FBD045
:1078B00015202B49086000BF2B4800680028FBD02A
:1078C00015212748001D016000BF274800680028D7
:1078D000FBD000202349086000BF2348006800282F
:1078E000FBD000BF00BF00BF00BF00BFBFF34F8F82
:1078F00000BF00BF00BF1248F038006800F4E0602D
:107900001A490843001D0E49F039086000BF00BF46
:1079100000BFBFF34F8F00BF00BF00E003E000BF18
:1079200000BF00BFFDE7FFF7CFFE10BD240300102E
:10793000403501400DF0ADBA00C007403C050040A5
:10794000FCED00E00C0100401056004020C5004056
:1079500024040010E40E0040000400403C170040E6
:107960000012001004E5014000E401400000FA05A7
:107970002DE9F0432DED048B87B004460D461646E5
:107980001F46DDF8488002A83B4632462946009053
:107990002046FFF707FB02A800F024F88146404686
:1079A000FEF763FE41EC190BB0EE491AF0EE691ACE
:1079B0009FED0A0B00F04CF9B0EE408AF0EE608AC1
:1079C00051EC180BFEF75EFEB9FBF0F100FB1190D5
:1079D00007B0BDEC048BBDE8F083000000000000A0
:1079E0000000244010B501464B7C03F00F028B5C75
:1079F0005B065C08531CCB5C44EA0344931CCB5CE1
:107A000044EA0323D41C0C5D43EA040010BD0000CB
:107A100010B502490868804710BD0000742C002092
:107A200010B5124C02202061606111A0A0611349C1
:107A3000E1614FF4006121620021A1626162E162B3
:107A40000BA0A0640E49E164102121650021A1650D
:107A50006165E1650BA1E01DFEF770FD0AA12046FE
:107A6000FEF76CFD2020A07110BD0000D450002056
:107A70005465726D696E616C000000004C5100200D
:107A80004C5900205254540053454747455200007A
:107A900010B501460A69CB689A4204D88C68641E06
:107AA000E41AA01801E0D41A601E10BD2DE9F047B9
:107AB0000446894617464FF0000AE56800BFD4F82F
:107AC0001080A84503D9A8EB0500461E04E0A5EBED
:107AD0000800401CA1680E1AA068401BB04201D9E2
:107AE000304601E0A068401B0646BE4201D2304647
:107AF00000E0384606466168481932464946FEF7B6
:107B0000C7FCB244B144BF1B3544A068A84200D1B1
:107B10000025E560002FD2D15046BDE8F0872DE961
:107B2000F047044689461546E668A068871BAF42C1
:107B300008D9616888192A464946FEF7A9FC7019D8
:107B4000E06010E0B8466168881942464946FEF791
:107B50009FFCA5EB070809EB070142466068FEF7AA
:107B600097FCC4F80C80BDE8F08700000FB41CB58A
:107B70000246002007AC00290BD0491ECDE90021A8
:107B8000054B6A462146069801F054F8009A0021F8
:107B900011701CBC5DF814FB639302000FB4084B1A
:107BA00010B504A902AA039801F044F8044602A9FA
:107BB000002001F0E1FB204610BC5DF814FB000042
:107BC000799302007CB5044600201D461646002924
:107BD0000BD0491ECDE90041044B6A462946304688
:107BE00001F028F8009A002111707CBD6393020017
:107BF00037B514460846064B6A46214601F01AF886
:107C000004466946002001F0B7FB20463EBD000057
:107C10007993020003B401984100009850EAC12012
:107C200018BF04204A0D18BF40F0010040F2FF7257
:107C3000B2EB515F08BF40F00200012808BF0520E9
:107C400002B0704700487047EC2D00200000000093
:107C50002DE9F04D2DED040B2DED0E8B96B0DDE9E9
:107C60002550279CDDF890A025F0004624F0004820
:107C7000BAF1000F14BF0121002101EB4502FC49BC
:107C800053184A1093422AD3002814BF012300231B
:107C900003EB44030B44F7498B4220D358EA00011D
:107CA0009FEDF59B76D0DFF8D8B35D4503D1BAF1EF
:107CB000000F05D188E0BAF1000F08BF002100D005
:107CC000012101EB450111F5001F08D8002814BF60
:107CD0000121002101EB440111F5001F0BD99DED9D
:107CE000261B9DED240B16B0BDEC0E8B04B0BDE839
:107CF000F04D00F069BE0027002DBCBFE14988456A
:107D000021DAE1498845A8BF02271CDAC3451ADCFD
:107D1000DE4901EB2851142908DDC1F1340220FAB3
:107D200002F101FA02F282420DD108E058B9C1F124
:107D3000140228FA02F101FA02F2424503D101F0DD
:107D40000101C1F1020756EA0A0124D1002C22DA0E
:107D5000002D18BF022F01D0012F0AD0022000F001
:107D6000A1FE16B0BDEC0E8B04B0BDE8F04D00F0E6
:107D700013BE022000F096FE00F00EFE51EC100B38
:107D800081F0004141EC100B16B0BDEC0E8B04B03D
:107D9000BDE8F08D18E09FEDBEAB9FEDBF8B0028D6
:107DA00071D1B848804522D105F1804010F580108E
:107DB00008BFBAF1000F07D0B3450ADC002CA8BFFA
:107DC0009DED260BE0DA0DE0B0EE490AF0EE690A0F
:107DD000DAE7002C06DA9DED260B51EC100B81F052
:107DE00000416FE0AE48784490ED000BCCE7D845F9
:107DF0004DD1002C48DA2EB186423AD1BAF1000FAB
:107E000042D126E0BAF1000F13D0022000F04AFE62
:107E100000F0F6FD8DED020B9DED240B8DED000BBA
:107E200010EE900A039961F31E0003909DED020B82
:107E3000AAE78DED02AB9DED240B1AEE901A10EE21
:107E4000900A8DED000B61F31E0003909DED020B77
:107E50009AE78DED028B9DED240B18EE901A10EE33
:107E6000900A8DED000B61F31E0003909DED020B57
:107E70008AE709DA9DED240B51EC190B53EC102B1A
:107E8000FEF7AAFD1EE020E09DED240B7CE7864274
:107E90001BDAB4F1804F0DD0A4F10050B0F1FF50C7
:107EA00013D1002D11DB9DED240B51EC100B11F0C3
:107EB00022FC07E09DED240B53EC102B51EC100B32
:107EC00000F0C2BC41EC100B5EE79DED240B51ECC1
:107ED000100B06F055FABAF1000FCDE90E0142D1B0
:107EE0009FED710B46B3A6F1E040B0F17F600CD07E
:107EF0005E4538D1002D00DAA7B3022F0CBF012058
:107F00004FF0FF30FEF7EEFDDCE7002D01DD002C29
:107F10000DDA002D01DD002C1FDB002D16DA002C00
:107F200014DB012F08BF9FED620B3FF42DAFB0EEC5
:107F30004A0AF0EE6A0A27E7022F18BF002D0CD07C
:107F4000012F0AD1002DFFF61FAF06E0002DB8BFAC
:107F5000002C08DA012F3FF417AFB0EE480AF0EE1C
:107F6000680A11E71BE0012000EBE57050EA070109
:107F700015D0791EB0EE498AF0EE698A084308BF31
:107F80009FED4D8B4E480025804570DD4D494E4894
:107F9000884514DDB0420DDB002C19DB2FE00120F9
:107FA00000F080FD16B0BDEC0E8B04B0BDE8F04DC6
:107FB00000F016BDB34502DC002C09DC1FE0864250
:107FC00002DA002C1BDA03E05E452BDD002C16DD07
:107FD000022000F067FD00F013FD8DED020B53EC65
:107FE0001A2B51EC180BFEF7CEFACDE900010399DC
:107FF000019861F31E0003909DED020BC4E6022080
:1080000000F050FD00F00CFD10EE901A18EE900AF2
:108010008DED020B8DED008B61F31E0003909DED45
:10802000020BB1E69DED0E0B53EC192B51EC100B2E
:10803000FEF7CCFC9FED260BCDE9080153EC102B8D
:108040009DED080B51EC100BFEF79DFA9FED221BE6
:1080500053EC112BFEF7BDFC9DED081B53EC112BCF
:10806000FEF791FA9FED1E1B53EC112B3CE08CE0C8
:10807000FFFF1F00FFFF0F00000000000000F03FA7
:108080000000F03F0000F07F0000404301FCFFFFD4
:10809000000000000000F07F000000000000000071
:1080A0003E8601000000000000000000000000808B
:1080B000000000000000F0FF000000000000F0BF22
:1080C0000000E0410000F043FFFFEF3F0000000030
:1080D000000000000000D03F555555555555D53F7F
:1080E000000000000000E03FFEF773FC9DED080B70
:1080F00041EC1A0B53EC102B51EC100BFEF743FA2A
:1081000053EC1A2BFEF73FFA41EC1A0B9FEDFE0BD6
:1081100053EC102B9DED080B51EC100BFEF733FACE
:1081200041EC1B0B9FEDFA0B51EC1A0B53EC102B8F
:10813000FEF729FA41EC1A0B9FEDF70B53EC102BCD
:108140009DED080B51EC100BFEF71DFA53EC1A2BAA
:10815000FEF73CFC41EC1A0B51EC1B0B53EC1A2BB9
:10816000FEF793FB0690CDE906519DED060B53EC0F
:108170001B2B51EC100BFEF729FC53EC1A2BFEF7CE
:1081800028FC41EC100B00F0A1B90020B6F5801FCF
:108190000EDA9FEDE30B53EC102B9DED0E0B51EC23
:1081A000100BFEF7F0F9CDE90E016FF034000E462A
:1081B00000EB2650A0F2FF37C6F31300DA4940F077
:1081C0007F6646F040568842D8BF002408DDD74974
:1081D0008142C8BF012403DC0024A6F580167F1C61
:1081E000D348784400EBC4000F9690ED00CB9DED92
:1081F0000E0B53EC1C2B51EC100BFEF7E7FB9DED27
:108200000E0B41EC1B0B53EC1C2B51EC100BFEF72F
:108210003CFB41EC100B51EC190B53EC102BFEF70F
:10822000DBFB41EC1D0B51EC1B0B53EC1D2BFEF744
:10823000AAF941EC1A0BBF488DED10AB78441095AC
:1082400090ED000B4FF0005040EA660000EB8440D8
:108250008DED080B00F5002009909DED080B53EC07
:108260001C2B51EC100BFEF7B1FB9DED0E1B53ECDC
:10827000112BFEF7AEFB41EC100B53EC102B9DEDD8
:10828000100B51EC100BFEF77EF99DED080B41EC45
:108290001C0B53EC102B9DED100B51EC100BFEF74B
:1082A00072F953EC1B2BFEF794FB53EC1C2BFEF7DF
:1082B0008DFB53EC1D2BFEF766F941EC1C0B53ECC8
:1082C0001A2B51EC1A0BFEF75EF941EC1B0B9A4886
:1082D0000621B0EE4B0AF0EE6B0A784400F0E0FAAB
:1082E000B0EE401AF0EE601AB0EE41DAF0EE61DA6C
:1082F00053EC1B2B51EC1B0BFEF745F953EC1D2BDC
:10830000FEF741F99DED100B41EC1B0B53EC1A2BC2
:1083100051EC100BFEF7B9FA53EC1C2BFEF733F9B6
:1083200053EC1B2BFEF7B1FA9DED100B41EC1B0B30
:1083300053EC102B51EC100BFEF725F941EC1D0B03
:108340009FED7FEB53EC1E2BFEF79FFA53EC1B2B9C
:10835000FEF79BFA0890CDE908519DED080B53EC10
:108360001E2B51EC100BFEF731FB53EC1D2BFEF7CF
:108370002DFB53EC1B2BFEF72CFB9DED080B41EC6A
:108380001D0B53EC102B9DED100B51EC100BFEF759
:10839000FAF841EC1B0B53EC1A2B51EC1D0BFEF7BA
:1083A000F2F89DED080B41EC1A0B53EC102B51EC3D
:1083B0001C0BFEF7E8F853EC1A2BFEF766FA41ECBB
:1083C0001A0B51EC1B0B53EC1A2BFEF75EFA0C90B8
:1083D000CDE90C519DED0C0B53EC1B2B51EC100B0C
:1083E000FEF7F4FA53EC1A2BFEF7F3FA41EC1B0BF1
:1083F0009FED550B53EC102B9DED0C0B51EC100B1E
:10840000FEF7C1F841EC1A0B9FED510B51EC1B0B21
:1084100053EC102BFEF7B7F841EC1B0B9FED4E0B06
:1084200053EC102B9DED0C0B51EC100BFEF7ABF841
:1084300053EC1B2BFEF729FA41EC100B484878440B
:1084400000EBC40090ED001B51EC100B53EC112B12
:10845000FEF71BFA41EC1B0B3846FEF743FBCDE958
:10846000080153EC1B2B51EC1A0BFEF70EFA41ECF2
:10847000100B3C48784400EBC40090ED00CB51EC6D
:10848000100B53EC1C2BFEF700FA9DED081B53EC70
:10849000112BFEF7FAF90690CDE906519DED080B78
:1084A00053EC102B9DED060B51EC100BFEF78EFAE2
:1084B00053EC1C2BFEF78AFA53EC1A2BFEF786FAC4
:1084C00053EC1B2BFEF785FA41EC100B9DED261BA0
:1084D00053EC102B8DED001B00959DED260B51EC00
:1084E000100BFEF750F89DED000B41EC1A0B53EC0E
:1084F000102B9DED260B51EC100BFEF767FA9DED4E
:10850000061B53EC112B2FE0000000604715F73FCE
:10851000FE822B654715F73F44DF5DF80BAE543EF6
:1085200000000000000040438E9803007AB60B0064
:1085300032810100E88101006A8001000000000032
:108540000000000000000840000000E009C7EE3F06
:10855000FD033ADC09C7EE3FF5015B14E02F3EBE98
:10856000F67E0100B07E0100FEF70DF853EC1A2BE9
:10857000FEF78BF99DED060B41EC1A0B53EC102B1B
:108580009DED000B51EC100BFDF7FDFFCDE90C014B
:108590009DED0C0B51EC1A0B53EC102BFEF775F9FB
:1085A000CDE902010C46AA498C422FDB611A08432F
:1085B00018D19DED0C0B53EC102B9DED020B51ECE3
:1085C000100BFEF703FA41EC1B0B9FEDA30B51ECD4
:1085D0001A0B53EC102BFEF758F953EC1B2BFEF73C
:1085E000ABFA2DD2022000F05DFA00F009FA10EE8D
:1085F000901A18EE900A8DED020B8DED008B61F351
:108600001E0003909DED020BFFF7BEBB944A24F0C1
:108610000041914214D39349214408437FF4EFACC5
:108620009DED0C0B53EC102B9DED020B51EC100B40
:10863000FEF7CCF953EC1A2BFEF77EFA7FF6DFAC8F
:1086400024F000408849894A002601EB20518242EB
:108650002BDA481C4FF4801121FA00F02044844AA0
:10866000C0F30A517A44A1F2FF3192ED000B814A26
:108670008DED080BCA4020EA0202C0F3130040F45B
:108680008010C1F1140120FA01F60992002CB8BF44
:1086900076429DED080B53EC102B9DED0C0B51EC2D
:1086A000100BFEF793F9CDE90C019DED0C0B51EC8D
:1086B0001A0B53EC102BFEF7E8F89FED6F0B0890A8
:1086C000CDE9085153EC102B9DED080B51EC100B2C
:1086D000FDF759FF41EC1B0B9FED690B53EC102B81
:1086E0009DED080B51EC100BFDF74DFF9DED0C0BB4
:1086F00041EC1C0B53EC102B9DED080B51EC100BB7
:10870000FEF764F953EC1A2BFEF763F99FED5E1B3D
:1087100053EC112BFDF737FF53EC1C2BFEF7B5F88C
:1087200041EC1A0B51EC1B0B53EC1A2BFEF7ADF876
:10873000CDE902019DED020B53EC1B2B51EC100B0C
:10874000FEF744F953EC1A2BFEF743F99DED020BAB
:1087500041EC1A0B53EC102B51EC100BFDF713FFEF
:10876000CDE908014A489DED080B0521784400F049
:1087700097F89DED081B51EC100B53EC112BFDF7F6
:1087800002FF9DED021B53EC112BFEF722F9CDE900
:1087900006019DED020B53EC1A2B51EC100BFDF76B
:1087A000F2FE53EC1A2BFEF770F89FED3B0B41ECF9
:1087B0001A0B53EC102B9DED060B51EC100BFEF732
:1087C00005F99DED060B41EC1B0B53EC102B9DEDB9
:1087D000020B51EC100BFDF7D6FE53EC1B2BFEF7F2
:1087E000FBF853EC1A2BFEF7F1F89DED021B53EC4E
:1087F000112BFEF7EBF853EC192BFEF7EAF8CDE955
:10880000020101EB065001150029C8BF039015DCD9
:108810009DED020B324651EC100BFEF74CF9FFF7C1
:10882000F9F9042808BF00F0FBF832469DED020B71
:1088300051EC100BFEF73FF9CDE902019DED020B63
:1088400051EC180B53EC102BFDF79DFEFFF73ABBD4
:108850000000904000000000FE822B654715973C09
:1088600000CC904000346F3F01FCFFFF0000E03F70
:10887000C07D0100FFFF0F0000000000432EE63F17
:10888000396CA80C615C20BEEF39FAFE422EE63F3F
:10889000087C010000000000000000000000004013
:1088A00070B504462DED028B4D1E00EBC500B0EEF9
:1088B000408AF0EE608A90ED000B35F0060017D08C
:1088C00053EC182B51EC100BFDF75DFE41EC100B37
:1088D0006D1E04EBC50090ED001B51EC100B53EC2A
:1088E000112BFDF7D2FF41EC100B35F00600E7D15C
:1088F000022D36D0042D1CD0062D1CBFBDEC028BE2
:1089000070BD53EC182B51EC100BFDF73CFE94EDB1
:108910000A1B53EC112BFDF7B8FF53EC182BFDF796
:1089200032FE94ED081B53EC112BFDF7AEFF41EC2A
:10893000100B53EC182B51EC100BFDF724FE94EDAB
:10894000061B53EC112BFDF7A0FF53EC182BFDF782
:108950001AFE94ED040B53EC102BFDF796FF41EC3F
:10896000100B53EC182B51EC100BFDF70CFE94ED93
:10897000021B53EC112BFDF788FF53EC182BFDF76E
:1089800002FE94ED001B53EC112BFDF77EFFBDECB6
:10899000028B41EC100B70BD9FED070B10B553EC33
:1089A000102B9FED070B51EC100BFEF715F841EC67
:1089B000100B10BD000000000000000000000000CF
:1089C000000000000000F03F10B553EC112B51ECFB
:1089D000100BFDF75AFF41EC100B10BD000000001A
:1089E0009FED050B10B553EC102B51EC100BFDF760
:1089F000F3FF41EC100B10BD000000000000000070
:108A00009FED050B10B553EC102B51EC100BFDF73F
:108A1000BAFD41EC100B10BD00000000000000701A
:108A20009FED050B10B553EC102B51EC100BFDF71F
:108A3000AAFD41EC100B10BD00000000000000106A
:108A400002E008C8121F08C1002AFAD17047704717
:108A5000002001E001C1121F002AFBD17047000075
:108A60000146202908DA012088400A4A104008B14E
:108A7000012070470020FCE7402909DAA1F120001D
:108A8000012202FA00F008B10120F2E70020F0E72D
:108A90000120EEE7FC06FFBD00BFEFF310810846A2
:108AA00072B670470149086070470000EC2D002045
:108AB0002DE9FF5F82B00021DDE90430020DDDF811
:108AC00040B0034318D044F61050A2F2FF324243A4
:108AD0001514119801281FD0A5EB0B00401C5FEA6C
:108AE000000A4FF000064E4FDFF83891B04650466E
:108AF00015D5CAF1000413E0119801244AA30128F6
:108B000001D16FEA0B010298119AC0E90031C0E966
:108B1000024206B0BDE8F09FCBF10000DFE704465B
:108B20000021404A491842EB0450CDE9001012E000
:108B3000E00707D032463B4640464946FDF723FD55
:108B40008046894632463B4610461946FDF71BFDD6
:108B500006460F466410002CEAD1DDE90401DDE988
:108B60000023BAF1000F06DAFDF70DFD42464B4631
:108B7000FDF709FD05E0FDF72FFF42464B46FDF7E7
:108B80002BFF04460E460022284BFDF7D5FF03D8E5
:108B90004FF0FF30014607E00022254B20463146CA
:108BA000FDF773FEFDF7AFFF102409E0002C0ADB90
:108BB0000A220023FDF716FC039B30321A55641E6F
:108BC00050EA0102F2D1641C039AC4F11103144467
:108BD000119A012A03D0012208430DD10AE008436B
:108BE00004D000204FF0110B119072E7A3EB0B059E
:108BF0006D1E0DE05B4504DD4FF0000205F101053F
:108C000004E003DA4FF00002A5F10105002AECD0E0
:108C100002981199C0E90231C0E9004579E70000E6
:108C2000000014400000F03F300000000000F0435E
:108C30000000E03F2DE9FF4F95B09B468946064670
:108C400000250FE2252877D100242746F84A012184
:108C5000059400E0044316F8013F203B01FA03F0BD
:108C60001042F7D130782A2811D06FF02F033078D6
:108C7000A0F13002092A16D8059A44F0020402EB4A
:108C8000820203EB42021044761C0590EFE759F88C
:108C9000042B0592002A03DA504244F40054059054
:108CA00044F00204761C30782E2816D116F8010FF5
:108CB00044F004042A280DD06FF02F023078A0F180
:108CC0003003092B09D807EB870302EB4303C718CE
:108CD000761CF3E759F8047B761C30786C280FD0AB
:108CE00006DC4C2817D068280DD06A2814D104E07F
:108CF000742810D07A280FD10DE044F400140AE053
:108D000044F4801401E044F440147278824202D1A9
:108D100004F58014761C761C307866280BD013DCA2
:108D2000582877D009DC002875D04528F6D0462889
:108D3000F4D047281AD19DE118E0632835D0642883
:108D400079D0652812D195E1702873D008DC6728A6
:108D5000F1D069286FD06E280DD06F2806D1B5E00C
:108D600073282CD0752875D0782874D05A46179956
:108D700090476D1C75E1C4F30250022809D0032806
:108D80000DD0D9F8001004280DD00D6009F10409A8
:108D900067E1D9F80010EA17C1E90052F6E7D9F8FF
:108DA00000100D80F2E70D70F0E719F8041B8DF844
:108DB000001000208DF80100EA46012003E059F878
:108DC00004AB4FF0FF3061074FF0000102D40DE01B
:108DD00008F101018846B9420FDA8045F8DB1AF83C
:108DE00008100029F4D108E008F101018846814209
:108DF000FADB1AF808100029F6D105985B46A0EBBB
:108E0000080721463846179A00F094FA284400EBE8
:108E1000080507E04DE029E10DE01AF8010B5A467C
:108E200017999047B8F10108F7D25B4621463846BA
:108E3000179A13E142E00A220092C4F302524FF063
:108E4000000A022A08D059F804CB032A4FEAEC7131
:108E50000AD00DE029E02AE009F1070121F007021C
:108E6000F2E802C1914609E00FFA8CFC4FEAEC717E
:108E7000042A03D14FFA8CFC4FEAEC71002907DA7F
:108E80000A460021DCF1000C61EB02012D2202E018
:108E9000220504D52B228DF80420012203E0E207ED
:108EA00001D02022F7E7904659E00A2102E0102283
:108EB0000DE010214FF0000A00910BE010224FF05E
:108EC000000A44F004040827009203E008224FF04F
:108ED000000A0092C4F30252022A05D059F804CBCA
:108EE0000021032A08D009E009F1070121F0070257
:108EF000F2E802C1914605E01FFA8CFC042A01D178
:108F00000CF0FF0C4FF00008220728D5702806D07F
:108F1000009B83F0100353EA0A0305D00EE04022C1
:108F20008DF80420012208E05CEA010206D030221C
:108F30008DF804208DF8050002229046009B83F0F6
:108F4000080353EA0A030AD15CEA010201D162076D
:108F500005D530228DF804204FF001087F1E5828D7
:108F600004D034A003900EA802900DE036A0F9E7DB
:108F700053466046009AFDF735FA84460398825CB2
:108F80000298401E029002705CEA0100F0D1029843
:108F900006A9081A00F1200A600702D524F48034DB
:108FA00000E00127574502DDA7EB0A0000E00020A2
:108FB00000EB0A01009005984144401A0590E00337
:108FC00006D45B462146179A059800F0B3F905448C
:108FD000002706E001A85A46C05D179990476D1C0E
:108FE0007F1C4745F6DBE0030CD55B462146179A0C
:108FF000059800F09FF9054404E030205A4617997F
:1090000090476D1C0099481E00900029F5DC08E08F
:10901000029802995A460078491C02911799904784
:109020006D1CBAF10001AAF1010AF1DC65E1000052
:10903000092801003031323334353637383961622E
:1090400063646566000000003031323334353637F2
:1090500038394142434445460000000000F058F9C9
:109060000544761C307800287FF4ECAD19B0284612
:10907000BDE8F08F620700D4062709F1070222F04D
:10908000070CFCE80223E14603F000485FEA080C05
:1090900002D00FF2702C0DE05FEA045C02D50FF2F3
:1090A000682C07E05FEAC47C02D00FF2602C01E07C
:1090B000AFF2700C4FF0FF3823F00043CDF850C0F2
:1090C00065280CD006DC452809D046281DD0472845
:1090D0003DD13DE0662818D067287ED138E00021D8
:1090E000112F01DB112000E0781CCDE9000106A959
:1090F0000EA8FFF7DDFCDDE90F010E9A03910021B8
:10910000009207F1010A04914DE04FF000400097F2
:10911000CDE9011006A90EA8FFF7CAFCDDE90F0290
:1091200003920E9B11990022DDF80CA0009304928B
:1091300011B9791C00EB010AB7EB0A0004D4C0F1A5
:10914000FF3007F1010A0490AAEB0700019044E008
:10915000012F00DA01270021112F01DD112000E08D
:109160003846CDE9000106A90EA8FFF7A1FCDDE90C
:109170000F010E9A0391002104910092BA46210733
:109180000CD40399514500DA8A46BAF1010F05DD86
:10919000009AAAF10101515C302908D0B84202DAE4
:1091A00010F1040F06DA0121CDE9011015E0AAF152
:1091B0000101E9E7002805DC049901440491AAEBC8
:1091C000000102E0411C514500DD8A460499401A25
:1091D000401C01904FF000400290200704D40198F9
:1091E000504501DBCDF8048000208DF84F00029837
:1091F0000DF14F07B0F1004F25D02B200E900298B3
:109200004FF0020800280CDA404202902D200E9008
:1092100007E00A210298FDF76DFA3031029007F855
:10922000011DB8F10001A8F10108F2DC0298002844
:10923000EFD1791E0E980870307800F0200040F0D1
:10924000450007F8020D12A8C01B00F1070814988A
:10925000007800B1012000EB0A01019801EBE071F8
:1092600005984144401A401E0590E00306D45B4631
:109270002146179A059800F05DF805441498007887
:1092800018B15A46179990476D1CE00324D55B46E8
:109290002146179A059800F04DF805441CE0049803
:1092A000002807DBDDE90301884203DD0098405C0C
:1092B000179901E0179930205A469047049805F114
:1092C0000105401C04900198401E019004D12E20FD
:1092D0005A46179990476D1CBAF10001AAF1010A8C
:1092E000DDDC05E017F8010B5A46179990476D1C15
:1092F000B8F10001A8F10108F4DC5B462146179A99
:109300000598ABE62D0000002B00000020000000B7
:109310002DE9F041044600251E461746880404D472
:1093200005E039462020B0476D1C641EF9D528465B
:10933000BDE8F0812DE9F041044600251E46904627
:10934000C80301D5302700E02027880404D505E0B4
:1093500041463846B0476D1C641EF9D52846BDE825
:10936000F0814A68002A06D00A68531C0B6010700E
:109370004868401E486070470A68531C0B601070B4
:109380007047000010B50246002119E001EB810092
:109390000D4B13F8300088B9012001EB81030A4C12
:1093A00004F8330001EB8100234603EBC000426266
:1093B00001EB810003EBC000001D10BD481CC1B2D1
:1093C0000A29E3DB0020F8E728430020014601F0EA
:1093D000030008B9012070470020FCE702465068EE
:1093E0000068401E084008B9012070470020FCE7D3
:1093F00010B50346D868884206D88818401E1C69F4
:10940000A04201D8012010BD0020FCE72DE9F05F4B
:1094100006460C462746A57994F804A04FF00009AB
:10942000B6F81CB0C84612E007EB88025946B0698E
:1094300002F0C6FA28B109F1010000F0FF0915B9E0
:1094400007E005B105E008F1010000F0FF08D04594
:10945000EADB00BF0DB1D14503D02DB9B9F1000F42
:1094600002DD0120BDE8F09F0020FBE710B50122DE
:109470000221002002F066FD044600BF1CB1072C4B
:1094800001D0204610BD00BF07220221012002F0BA
:1094900059FD044600BF1CB1072C01D02046F1E75E
:1094A00000BF0A220021084602F04CFD044600BF1E
:1094B0001CB1072C01D02046E4E700BF0020E1E703
:1094C0002DE9F84305460E46144600274FF00409DF
:1094D000FF2249466846FCF7EDFF24F003023146BF
:1094E000284603F093FF074624F00300A4EB00088E
:1094F0008FB9B8F1000F0ED024F003008119424655
:109500006846FCF7C5FF24F0030148194A4669463E
:1095100003F07CFF07463846BDE8F88313B586B0F4
:1095200004464FF0FF3005900020049003901B4943
:1095300003AB04AACDE90010014620460FF024FE3B
:10954000039848B10120164905AB07AACDE90010E0
:10955000022120460FF018FE0498E0B10598401C47
:10956000C8B90498012802D80E48007850B10120EB
:109570000B4905AB07AACDE90010014620460FF0C4
:1095800003FE08E008A240F2F331124803F0B4FEF3
:10959000012004490870059808B010BDE991030046
:1095A000D99502004D2B00205472696767657220BF
:1095B0006120474320636865636B20616674657250
:1095C00020616C6C6F6320454E56206661696C6546
:1095D000642E0A007808040070B503460C46154650
:1095E000187880B118692668B0420CD9987801289B
:1095F00005D09878022806D10448007818B958692F
:109600002860012070BD0020FCE700004D2B0020E9
:1096100070B505462C46207812284AD2DFE800F0C3
:10962000090F12181B21242B3134373A3D40434691
:10963000474804F10800616806F0BEFC3AE006F015
:10964000B7FC37E004F10800616806F0BFFC31E0C8
:1096500006F0B8FC2EE004F10800616806F0B1FCE9
:1096600028E006F0AAFC25E0002007F01DFE0420FB
:1096700007F01AFE1EE000F033FC042007F022FE83
:1096800018E002F091FF15E003F03EFB12E002F05B
:1096900050FC0FE00FF0D2FA0CE002F047FF09E0B7
:1096A00001F0F8FA06E001F065FE03E002E001E0F7
:1096B00000E000BF00BF14B1204601F0BDF970BD4D
:1096C0001CB50446009403480190DDE9000101F057
:1096D000C0F81CBD1196020070B50546082001F0C7
:1096E000FDF904461CB125702046FFF7E9FF70BD67
:1096F0002DE9F04106460F46154605F1080001F038
:10970000EDF9044654B1267065602A46394604F1E5
:109710000800FCF7BDFE2046FFF7D2FFBDE8F08150
:1097200000B585B006F026FB102219A11D48FCF7F4
:10973000AFFE1C4816301CA10A68026049684160EF
:1097400020221CA11030FCF7A3FE1648401E01F099
:109750008AF8214801F061F820A2D2E9001092684D
:10976000CDE9030202910C2202A91FA001F096F993
:109770006A460C2102A801F017FA012802D16846B6
:1097800001F002FA01F04AFA00F094FF05B000BDC2
:1097900074757961336339393833613130613061DF
:1097A00000000000AD2A002065713165627A77748F
:1097B0000000000066595566747164324B326D7159
:1097C0003142754D73396459723774475767347A2B
:1097D0006C6F793500000000F1970200444332338A
:1097E00034443038433845466D61635F73747200AA
:1097F0003EB50446207840380E2865D2DFE800F0F8
:10980000071B64606464346464252D5152592079C7
:1098100003280FD12EA05221334B344ACDE900103A
:1098200033A1042003F064FF022007F03DFD042073
:1098300007F048FD49E0606881782089C01E8142B8
:1098400002D1606805F074FD3FE02B4800780128E4
:1098500002D1207907F006F837E02079FF2802D0FE
:10986000207906F0B7FF30E0B4F9080023A1722296
:109870001D4BCDE9002102901C4A1DA1042003F0DC
:1098800037FF29A173226068174BCDE900210290B0
:10989000164A17A1042003F02BFF606801F0B4F909
:1098A00013E000BF002006F01DFA032007F0FCFCC7
:1098B0000BE0002006F016FA032007F0F5FC04E0A8
:1098C000201D00F097FE00E000BF00BF3EBD00007D
:1098D000626F6E64696E6720616E6420636F6E6E86
:1098E000656374696E670000CDD40300E005040071
:1098F0004E4F5F5441470000B83200205455594143
:109900005F424C455F43425F4556545F54494D4565
:109910005F5354414D50202D2074696D655F7A6FFF
:109920006E653A2025640000545559415F424C450C
:109930005F43425F4556545F54494D455F53544120
:109940004D50202D2074696D657374616D703A20DF
:109950002564000088B007460E46144672B6012FF3
:109960000CD06FF48050384498B1B0F5405F2BD0E4
:109970006FF440510844002848D115E043A01A2153
:109980004A4B4BA2CDE900104DA1042003F0B0FEDC
:1099900048E04DA01E21454B45A2CDE9001048A14D
:1099A000042003F0A5FE3DE0254628884FA223238E
:1099B0006968CDE90032CDE902103C4B3CA240A1E0
:1099C000042003F095FE2DE02546A8680BF010FF5B
:1099D0008046D5E90001CDE90381CDE905064AA11C
:1099E0002B22A868314BCDE90021029030A234A18E
:1099F000042003F07DFE4EA031212C4B2CA2CDE99A
:109A000000102FA1042003F073FE0BE04DA03621BF
:109A1000264B27A2CDE90106009129A1042003F0DD
:109A200067FE00BF00BF4DA03A21204B20A2CDE928
:109A3000001023A1042003F05BFE00BF0BF002FA2C
:109A400000BF00BF0AF08EFF0028FBD100BF00BF9F
:109A500000BF00BF00BF00BF00BFBFF34F8F00BFFC
:109A600000BF00BF4148006800F4E060404908437F
:109A7000001D3E49086000BF00BF00BFBFF34F8F0D
:109A800000BF00BF00BF00BF00BFFDE7534F4654FB
:109A90004445564943453A20415353455254494F52
:109AA0004E204641494C454400000000CDFE0300D5
:109AB0002E2E5C2E2E5C2E2E5C6D61696E2E630048
:109AC0004E4F5F5441470000534F4654444556495A
:109AD00043453A20494E56414C4944204D454D4F4F
:109AE00052592041434345535300000041535345CD
:109AF0005254494F4E204641494C45442061742000
:109B000025733A25750000004552524F52202575A5
:109B1000205B25735D2061742025733A25750D0A3D
:109B200050432061743A20307825303878000000A6
:109B3000456E64206F66206572726F722072657068
:109B40006F727400554E4B4E4F574E204641554C48
:109B5000542061742030782530385800537973745C
:109B6000656D207265736574000000000CED00E007
:109B70000000FA053EB504460020009001900290D6
:109B800002946A46002144F20100FFF7E3FE3EBD65
:109B900070B504460D46204604F04CFC28B1294619
:109BA000204604F03BFC002070BD0520FCE7034686
:109BB00009B90E20704712B1501E104008B109209B
:109BC000F8E71960501E988000209860D86000BFA8
:109BD000F0E770B504460D46204604F02BFCA18842
:109BE000884205D82946204604F037FC002070BD85
:109BF0000420FCE72DE9FF4705460E46174684483A
:109C0000007803281AD083A04FF4C3718C4B8D4A7F
:109C1000CDE900108CA1042003F06AFD0020039020
:109C200004208DF80D00022203A9384600F0E6FD5D
:109C300000F09CFA012004B0BDE8F0872C462078A3
:109C4000C0B183A040F295117D4B7E4ACDE9001052
:109C50007DA1042003F04CFD0020039004208DF82A
:109C60000D00022203A9384600F0C8FD00F07EFA7C
:109C70000120E0E70221601C00F07EFF0221E01CD1
:109C800000F07AFF0221601D00F076FF00200390B3
:109C90008DF80C00B4F8011079480068401C81422E
:109CA00003D001208DF80D0098E0F01FB4F80310E8
:109CB000884203D002208DF80D008FE0B4F8031025
:109CC0000022E01D00F0EBFDB4F80510884203D03F
:109CD00003208DF80D0081E000208DF80D008146F5
:109CE0006848006860B1B4F8030066490968014437
:109CF00064480068012202EB1030B1EB003F19D339
:109D00006048006828B94FF480514FF48C2000F06F
:109D1000EBFE5C480068012101EB10304FF48C2110
:109D200001EB00384FF48051404600F0DDFE4FF06B
:109D3000010900BFB4F803205249096801F58C20DD
:109D4000E11D00F0D9FE18B104208DF80D0044E0AB
:109D5000B4F803004B49096808444A4908604A4876
:109D600000680968884211D94548006847A14FF446
:109D7000E972334BCDE900210290324A32A104202E
:109D800003F0B6FC0320224908700CE03E4800684E
:109D90003C490968884203D104201D49087002E04B
:109DA00004208DF80D0036480068401C34490860D6
:109DB000B4F80310394AE01D00F07BFD3749086014
:109DC000B9F1000F09D004222E4935A000F077FE2A
:109DD0000422324935A000F072FE00BF022203A91E
:109DE000384600F00BFD9DF80D0078B19DF80D0090
:109DF00031A14FF4F572124BCDE900210290114AC6
:109E000011A1042003F074FC00F0B0F9002012E767
:109E1000212B00204572726F723A20545559415FD0
:109E2000424C455F4F54415F444154412D20735F84
:109E30006F74615F7374617465206572726F720014
:109E400048D50300280604004E4F5F5441470000E8
:109E50004572726F723A20545559415F424C455FCA
:109E60004F54415F444154412D206F74615F6461E0
:109E700074612D3E74797065206572726F72000096
:109E8000242B0020282B002080360020735F706B6D
:109E9000675F69643A202564000000002C2B0020D5
:109EA000735F646174615F6C656E0000735F646111
:109EB00074615F63726300004572726F723A20547E
:109EC0005559415F424C455F4F54415F44415441B5
:109ED0002D206572726F7269643A2025640000005B
:109EE00010B504480078002802DD00F03FF910BDED
:109EF0000020FCE7212B00207FB504460D461646C6
:109F000050480078042819D04FA040F2F911594B5D
:109F1000594ACDE9001059A1042003F0E9FB0020C3
:109F2000039003208DF80D00022203A9304600F0B3
:109F300065FC00F01BF9012004B070BD012D01D1BA
:109F40002078C0B14FA040F207214A4B4A4ACDE9E0
:109F500000104AA1042003F0CBFB00200390032053
:109F60008DF80D00022203A9304600F047FC00F0F6
:109F7000FDF80120E0E74CA000F08AFD4DA000F0C4
:109F800087FD4FA000F084FD002003908DF80C00A9
:109F90004E4800684E490968884203D001208DF878
:109FA0000D0035E04A48006800F0EEFA474949687C
:109FB000884203D002208DF80D0029E000208DF8A2
:109FC0000D0001204349087043A040F22721294B8E
:109FD000294ACDE9001029A1042003F089FB3B4860
:109FE000416840488162394800683E494862012121
:109FF0003C48C1623C213830FCF763FA0020394903
:10A0000008634FF48C2137484166374800F082FCE2
:10A01000022203A9304600F0F1FB9DF80D0078B153
:10A020009DF80D0031A140F23522124BCDE90021FF
:10A030000290114A11A1042003F05AFB00F096F897
:10A04000002079E7212B00204572726F723A20546C
:10A050005559415F424C455F4F54415F454E442D39
:10A0600020735F6F74615F737461746520657272D1
:10A070006F7200005DD50300280604004E4F5F5448
:10A08000414700004572726F723A20545559415F42
:10A09000424C455F4F54415F454E442D20747970CA
:10A0A00065206572726F7200735F646174615F6CCA
:10A0B000656E0000735F646174615F6372630000CA
:10A0C000735F66696C652E6D643500008036002014
:10A0D000282B0020302B00206F7461207375636380
:10A0E000657373005C59002011A802004572726FFD
:10A0F000723A20545559415F424C455F4F54415F7D
:10A10000454E442D206572726F7269643A20256451
:10A110000000000010B54FF0FF300E49086000202D
:10A120000D4908600D4908600D49087018210D4857
:10A13000FCF7C7F918210C48FCF7C3F941F2883342
:10A1400000221821142000F09CFB00F06CFB002082
:10A1500010BD0000242B0020282B00202C2B0020D9
:10A16000302B0020803600209836002010B509489A
:10A17000007838B94FF41E710748FCF7A2F90020A7
:10A1800000F0C8FB002005490870032007F08CF898
:10A19000002010BD302B00205C590020212B002016
:10A1A000F0B58BB005460F46164654480078012896
:10A1B0000FD053A04FF485715E4B5F4ACDE900107C
:10A1C0005EA1042003F094FAFFF7D0FF01200BB04A
:10A1D000F0BD2C46207870B15AA04FF48A71554BCF
:10A1E000554ACDE9001055A1042003F081FAFFF78C
:10A1F000BDFF0120EBE7042104F1090000F0BCFCE5
:10A20000042104F11D0000F0B7FC042104F1210039
:10A2100000F0B2FCD4F81D0058490860D4F82100C1
:10A220004860102204F10D0154480830FCF730F961
:10A230001C2104A8FCF745F900208DF81000082225
:10A240004FA1601CFCF76DF918B101208DF81100C9
:10A2500017E0D4F80900B0F5817F03D202208DF811
:10A2600011000EE0D4F81D00B0F5003F03D9032023
:10A270008DF8110005E000208DF8110002201F4923
:10A2800008700422414942A000F008FC04223F4922
:10A29000091D42A000F002FC3C480068CDF8120005
:10A2A00004210DF1120000F067FC38484068CDF839
:10A2B000160004210DF1160000F05EFC10210DF1D6
:10A2C0001A00FCF7FEF81A2204A9304600F096FAAC
:10A2D0009DF8110078B19DF8110033A14FF49F72E1
:10A2E000144BCDE900210290134A14A1042003F07D
:10A2F000FFF9FFF73BFF002069E70000212B00205A
:10A300004572726F723A20545559415F424C455F15
:10A310004F54415F46494C455F494E464F2D20738F
:10A320005F6F74615F7374617465206572726F72C0
:10A330000000000012D50300280604004E4F5F54B1
:10A34000414700004572726F723A20545559415F7F
:10A35000424C455F4F54415F46494C455F494E462C
:10A360004F2D2066696C655F696E666F2D3E74794E
:10A370007065206572726F720000000080360020E8
:10A3800065713165627A77740000000098360020AC
:10A39000735F646174615F6C656E0000735F64611C
:10A3A00074615F63726300004572726F723A205489
:10A3B0005559415F424C455F4F54415F46494C45BA
:10A3C0005F494E464F2D206572726F7269643A2064
:10A3D00025640000F0B587B005460F4616463B4899
:10A3E000007802280FD03AA040F24D11464B474A60
:10A3F000CDE9001046A1042003F07AF9FFF7B6FE7C
:10A40000012007B0F0BD2C46207870B142A040F288
:10A4100057113D4B3D4ACDE900103DA1042003F00A
:10A4200067F9FFF7A3FE0120EBE70421601C00F0B1
:10A43000A3FB0020059006908DF81400D4F80100CD
:10A4400000282FD00422444944A000F027FB042216
:10A45000454946A000F022FB102201A946A000F0C9
:10A460001DFB1022474901A8FCF75BF890B93A4858
:10A47000006800F089F83C49096888420AD1D4F89C
:10A48000010035490968884204D333480068CDF893
:10A49000150006E00020CDF815002F49086032496C
:10A4A000086000BF1022374933A000F008FB0421E8
:10A4B0000DF1150000F060FB052205A9304600F003
:10A4C0009DF903200149087000209AE7212B002004
:10A4D0004572726F723A20545559415F424C455F44
:10A4E0004F54415F46494C455F4F46465345545F84
:10A4F0005245512D20735F6F74615F737461746591
:10A50000206572726F7200002CD5030028060400CB
:10A510004E4F5F54414700004572726F723A2054AB
:10A520005559415F424C455F4F54415F46494C4548
:10A530005F4F46465345545F5245512D2066696C26
:10A54000655F6F66667365742D3E7479706520650E
:10A5500072726F7200000000282B0020735F64612C
:10A5600074615F6C656E00002C2B0020735F64616A
:10A5700074615F6372630000735F66696C652E6D62
:10A5800064350000883600202DE9F843044614B9EC
:10A590000020BDE8F883002000904FF48C25C020F7
:10A5A000B4FBF0F7B4FBF0F100FB11464FF00008EC
:10A5B0000DE0C0220E49284611F0B2FB6A46C021C8
:10A5C0000B4800F076F90090C03508F10108B84555
:10A5D000EFD35EB1C0220649284611F0A1FB6A46BE
:10A5E0003146034800F065F9009035440098D0E703
:10A5F000B036002010B586B0044620788DF81000E3
:10A600002078032811D020781DA14022214BCDE9CC
:10A6100000210290204A21A1042003F069F86388F8
:10A62000142120A062680BF035FF2078062823D281
:10A63000DFE800F003090F151B21618804AA606898
:10A6400000F03EF819E0618804AA6068FFF7A8FDF1
:10A6500013E0618804AA6068FFF7BCFE0DE0618822
:10A6600004AA6068FFF7C6FA07E0618804AA606878
:10A67000FFF742FC01E000E000BF00BF06B010BDE4
:10A680006F74615F636D645F747970653A202564EF
:10A6900000000000EED40300280604004E4F5F5473
:10A6A000414700006F74615F636D645F6461746152
:10A6B0000000000010B5012000F026F910BD0000D8
:10A6C00070B586B004460D46164632480078D0B1C3
:10A6D00031A0D5213B4B3C4ACDE900103BA10420E1
:10A6E00003F006F8002003900490059001208DF8F7
:10A6F0000C00092203A9304600F080F8FFF736FD70
:10A70000012006B070BD012D01D12078C8B131A063
:10A71000E3212C4B2C4ACDE900102CA1042002F09F
:10A72000E7FF002003900490059001208DF80C00B5
:10A73000092203A9304600F061F8FFF717FD012058
:10A74000DFE7FFF7E7FC00200390049005908DF809
:10A750000C0003208DF80D0000208DF80E0040F253
:10A760000110CDF80F0004210DF10F0000F004FAE4
:10A77000C020ADF8130002210DF1130000F0FCF928
:10A78000092203A9304600F039F801200149087078
:10A790000020B6E7212B00204572726F723A2054D8
:10A7A0005559415F424C455F4F54415F5245512DD1
:10A7B00020735F6F74615F7374617465206572727A
:10A7C0006F720000FED40300280604004E4F5F5451
:10A7D000414700004572726F723A20545559415FEB
:10A7E000424C455F4F54415F5245512D207061727C
:10A7F000616D206572726F720000000070B50446D2
:10A800000E46154666606580204600F07FF970BDF3
:10A8100010B50446FFF7AAFC10BD10B5044620464B
:10A820000FF09AFD10BD7CB5002000900190012032
:10A830008DF800006946022067DF044600BF254608
:10A8400025B100BF2846FFF795F900BF00BF20469D
:10A850007CBD13B5DDE900010FF0EEFF1CBD10B5A6
:10A8600010F0F8FA10BD10B50446204611F06EFB4A
:10A8700010BD70B504460D462946204601F01FFF65
:10A8800070BD2DE9F04104460D4616461F463B4675
:10A890003246294620460BF06DFBBDE8F08170B5CD
:10A8A00004460D46164632462946204601F014FF5E
:10A8B00070BD70B504460D46164632462946204600
:10A8C00001F02AFF70BD00001CB507A040F217116F
:10A8D000094B0A4ACDE9001009A1042002F008FF43
:10A8E00010F090F800201CBD6465766963652072E5
:10A8F0006573657400000000B8D50300B406040059
:10A900004E4F5F544147000010B50446204609F001
:10A910000BF810BD10B50446204609F0E3F810BD51
:10A9200070B505460C4600F0A5F803280AD1A3B27D
:10A930002A46142107A00BF0ADFD2146284610F051
:10A9400088F870BDA3B22A46142104A00BF0A2FD22
:10A950000120F6E764705F727370000064705F72CC
:10A9600073705F756E636F6E6E000000FEB5044617
:10A970000E46154600F07EF8032816D114A0B52126
:10A98000174B184ACDE90104009117A1042002F0E9
:10A99000AFFEABB23246142115A00BF07BFD2A4668
:10A9A0003146204610F091F8FEBD09A0B9210C4BAC
:10A9B0000C4ACDE9010400910BA1042002F098FE9D
:10A9C000ABB2324614210FA00BF064FD0120EBE77F
:10A9D00074696D657374616D703A202564000000C0
:10A9E00085D50300B40604004E4F5F544147000074
:10A9F00064705F7273705F74696D657374616D709C
:10AA00000000000064705F7273705F74696D65733D
:10AA100074616D705F756E636F6E6E002DE9F0414D
:10AA200004460D4616461F463B46324629462046FA
:10AA300003F0B2FCBDE8F08110B50446204610F0EA
:10AA4000D2F910BD7CB5054605B97CBD68466DDF01
:10AA5000044600BF264626B100BF3046FFF78AF8FD
:10AA600000BF00BFDDF801002860BDF80500A88028
:10AA700000BFEAE710B50FF079FE10BD10B504462F
:10AA800020460BF0E7FC10BD10B50BF0EFFC10BD3D
:10AA900010B50446204602F04BFA10BD70B50446CE
:10AAA0000D461646002332462946204602F090FB0A
:10AAB00070BD10B50BF060FB02F0DAF910BD70B597
:10AAC00004460D46164632462946204602F0D4FC7E
:10AAD00070BD10B50BF0DAFC002010BD10B50446B7
:10AAE000A0B211F0D5F810BD70B504460D46294648
:10AAF000204611F0FFF870BD70B504460D461646AD
:10AB000032462946204611F01BF970BD3EB5044679
:10AB10002078032811D020780AA1C6220E4BCDE957
:10AB2000002102900D4A0EA1042002F0E1FD63888D
:10AB300014210DA062680BF0ADFC204611F012F953
:10AB40003EBD00006F74615F7273705F74797065F1
:10AB50003A20256400000000A7D50300B4060400D5
:10AB60004E4F5F54414700006F74615F7273705FB6
:10AB7000646174610000000070B504460D4629460A
:10AB8000204601F0EFFD70BD10B5044620460BF0E5
:10AB9000EFFC10BD70B504460D46164632462946F8
:10ABA000204611F073FD70BD70B504460D46164683
:10ABB00032462946204611F0DBFD70BD2DE9F041FB
:10ABC00004460D4616461F463B4632462946204659
:10ABD00011F05AFBBDE8F08110B50446204611F093
:10ABE00064FB10BD10B50446204611F068FB10BD93
:10ABF00010B50FF09BFE10BD70B504460D462946FA
:10AC0000204611F0B7FC70BD10B5044620460BF08D
:10AC10007BFF002010BD03460020704710B50520C3
:10AC200006F042FB10BD00001CB509A0B521104B79
:10AC3000104ACDE9001010A1042002F059FD4FF098
:10AC4000FF300F49088001200E4908701CBD00002C
:10AC50006170702074657374206D6F646520656E1B
:10AC6000746572207375636365737321000000005F
:10AC700071D503006C0604004E4F5F54414700003D
:10AC8000362B0020332B002010B504460D20FEF794
:10AC900023FD10BD0120014908707047342B0020AE
:10ACA00070B504460D4616460C48007828B924B9FC
:10ACB00032462946204600F015F804F0D3F960B179
:10ACC0005CB10748B0F90000844206D00448048013
:10ACD00032462946204600F005F870BD342B00208E
:10ACE000362B00202DE9F0419AB004460D46174658
:10ACF00004F0B8F918B914B11AB0BDE8F0810A2C03
:10AD00007AD2DFE804F005101F4C52586C7A8EB9E5
:10AD1000FFF78AFF5BA000681990012219A920465D
:10AD200000F02CFBAAE0182257A114A8FBF7B0FBF7
:10AD300014A8FBF7EFFB86B2324614A9204600F0B8
:10AD40001DFB9BE03A4629462046FFF764FFC6B24A
:10AD500086B953A30FCBCDE91823CDE9160116A868
:10AD6000FBF7D8FB1FFA80F8424616A9204600F0F0
:10AD700005FB13E04EA3D3E90020D3E90213CDE98C
:10AD80001813CDE9162016A8FBF7C4FB1FFA80F8AC
:10AD9000424616A9204600F0F1FA00BF6EE03A469E
:10ADA0002946204600F018FB68E03A46294620462E
:10ADB00000F0C0F862E0062006F076FA38A191E8CB
:10ADC0000D00C96816AE0DC6199116A8FBF7A2FBB7
:10ADD00086B2324616A9204600F0D0FA4EE038A3DB
:10ADE00038A240A101A8FCF7D9FEC6B2324601A99B
:10ADF000204600F0C3FA41E03FE0132205F10801CC
:10AE000043A0FFF75CFE26A30FCB16AE0FC616A815
:10AE1000FBF780FB86B2324616A9204600F0AEFA58
:10AE20002CE03A462946204600F0D2FA064616F1B2
:10AE3000500F0CDD724238A101A8FCF7AFFE00F004
:10AE4000FF08424601A9204600F098FA13E018A333
:10AE5000D3E901211868DB68CDE91813CDE91602A2
:10AE600016A8FBF757FB1FFA80F8424616A92046A2
:10AE700000F084FA00BF01E000E000BF00BF00BFA7
:10AE80003AE70000010000007B22726574223A74E8
:10AE90007275652C22686964223A22227D000000C6
:10AEA0007B22726574223A747275657D0000000021
:10AEB0007B22726574223A66616C73657D000000C6
:10AEC000312E3100747579615F626C655F6C6F6300
:10AED0006B5F636F6D6D6F6E5F6E524635323833E8
:10AEE000320000007B22726574223A747275652C00
:10AEF000226669726D4E616D65223A222573222C9D
:10AF0000226669726D566572223A222573227D008F
:10AF10006869645F737472007B22726574223A748C
:10AF20007275652C2272737369223A222564227D20
:10AF3000000000002DE9F04105460E4617460024AA
:10AF4000E048E1A10968016004220146E0A0FFF7A2
:10AF5000B6FD0422DB49091DDDA0FFF79FFD042299
:10AF6000D849091D081FFBF7DCFA00287ED17B2297
:10AF70002046611CCCB2D3490A5422222046611CCF
:10AF8000CCB2D0490A5408462044D4A10A88028091
:10AF900089788170E01CC4B222222046611CCCB2A8
:10AFA000C8490A543A222046611CCCB2C5490A5409
:10AFB00008462044C4A109680160201DC4B22C22A7
:10AFC0002046611CCCB2BF490A5422222046611C93
:10AFD000CCB2BC490A5408462044C1A10A680260A8
:10AFE00089888180A01DC4B222222046611CCCB277
:10AFF000B4490A543A222046611CCCB2B1490A54E1
:10B0000022222046611CCCB2AE490A5408192022E3
:10B01000B549FBF73DFA04F12000C4B222222046D4
:10B02000611CCCB2A7490A542C222046611CCCB228
:10B03000A4490A5422222046611CCCB2A1490A54D8
:10B0400008462044A9A10A88028089788170E01C02
:10B05000C4B222222046611CCCB29A490A543A2238
:10B060002046611CCCB297490A5400E01CE1222220
:10B070002046611CCCB293490A5408460119132298
:10B080009BA0FFF70BFD04F11300C4B2222220465F
:10B09000611CCCB28B490A542C222046611CCCB2D4
:10B0A00088490A5422222146601CC4B28548425471
:10B0B000204491A109680160201DC4B22046611C92
:10B0C000CCB280490A543A222046611CCCB27D4958
:10B0D0000A5422222046611CCCB27A490A5408192B
:10B0E000102281491639FBF7D3F904F11000C4B2DC
:10B0F00022222046611CCCB272490A542C222046DE
:10B10000611CCCB26F490A5422222046611CCCB289
:10B110006C490A540846204479A10A88028089783B
:10B120008170E01CC4B222222046611CCCB2654969
:10B130000A543A222046611CCCB262490A542222A7
:10B140002046611CCCB25F490A54084601190C2202
:10B150006CA0FFF7A3FC04F10C00C4B2222220462D
:10B16000611CCCB257490A542C222046611CCCB237
:10B1700054490A5422222046611CCCB251490A5437
:10B180000846204461A10A6802604968416004F1F0
:10B190000800C4B222222046611CCCB249490A549C
:10B1A0003A222046611CCCB246490A54222220464B
:10B1B000611CCCB243490A5408191D2256A1FBF761
:10B1C00067F904F11D00C4B222222046611CCCB2F2
:10B1D0003C490A542C222046611CCCB239490A54FD
:10B1E00022222046611CCCB236490A540846011975
:10B1F00051A002680A6082888A8080798871E01D87
:10B20000C4B222222046611CCCB22E490A543A22F2
:10B210002046611CCCB22B490A5422222146601CD4
:10B22000C4B228484254204445A10A880280897843
:10B230008170E01CC4B222222046611CCCB221499C
:10B240000A542C222046611CCCB21E490A542222E8
:10B250002046611CCCB21B490A540846011939A08A
:10B2600002680A6042684A60007A087204F10900C4
:10B27000C4B222222046611CCCB212490A543A229E
:10B280002146601CC4B20F484254204430A10A68D1
:10B29000026009790171601DC4B27D222046611CE3
:10B2A000CCB208490A5405E00D222BA10548FBF752
:10B2B000EFF80D2422460349284600F05FF8BDE868
:10B2C000F081000070370020747275650000000086
:10B2D0004E565F49465F4155544800007265740000
:10B2E00061757A4B65790000D26600206869640058
:10B2F0006869645F737472007575696400000000AA
:10B300006D6163006D61635F737472006669726D75
:10B310004E616D6500000000747579615F626C6557
:10B320005F6C6F636B5F636F6D6D6F6E5F6E5246C8
:10B3300035323833320000006669726D566572002E
:10B34000312E310070726F645F7465737400000099
:10B3500066616C73650000007B22726574223A6638
:10B36000616C73657D00000010B504460E20FEF789
:10B37000B3F910BD10B5FFF7A7FA10BD2DE9F041E4
:10B3800006460F4614460025662010490870AA207C
:10B390004870002088700846C670201208714C71F1
:10B3A000224639460948801DFBF772F8A01D85B278
:10B3B00029460648FFF75DFA04494855681C85B2DE
:10B3C00029460248FFF718FCBDE8F08170380020DC
:10B3D00003466FF031007047F0B587B006460C4663
:10B3E0001746012004F07EFC202204F10B011D48C9
:10B3F000FBF74EF8102204F135011A481638FBF716
:10B4000047F810F0CDFE05AA0C2104F14E00FFF71D
:10B41000CBFB012816D105A8FFF7B6FB0C2204F1DF
:10B420004E0111A0FFF74BFB11A30FCB01AD0FC5D0
:10B4300001A8FBF76FF885B22A4601A90320FFF7A0
:10B440009DFF0DE00EA30FCB01AD0FC501A8FBF7CB
:10B4500061F885B22A4601A90320FFF78FFF00BFDC
:10B4600007B0F0BDD26600206D61635F7374720037
:10B470007B22726574223A747275657D000000004B
:10B480007B22726574223A66616C73657D000000F0
:10B4900010B503460C4600BF0B48807808B9082059
:10B4A00010BD00BF0AB90720FAE70BB90720F7E77C
:10B4B0001868007C08B10820F2E7196800200874B9
:10B4C0004C744A6100BFEBE7D447002010B50DF083
:10B4D000F7FB00200F49087048700B20887000208F
:10B4E0000D4908600D4908700D4908701420FBF7DC
:10B4F000B3FD06211420FBF7D3FD1420FBF7B8FDA4
:10B5000000200DF0B3FB0DF0ABFB064908600020F6
:10B5100010BD0000D44700208C2C00209C2C002063
:10B520009D2C0020902C00202DE9F04104460E4671
:10B530001746254600BF1048807810B90820BDE89E
:10B54000F08100BF0CB90820F9E7052E01D20720D1
:10B55000F5E7686908B90820F1E7687C012801D19E
:10B56000304600E0002080463B46424631462846B1
:10B570000EF0A8FBE3E70000D447002070B50446B6
:10B58000254600BF0848807808B9082070BD00BF74
:10B590000CB1686908B90820F8E700202874022176
:10B5A00028460EF0C1FBF1E7D44700202DE9F04119
:10B5B00004460F48077821460E48FEF7E9FA804610
:10B5C00097B100200A49087001220B490B4808F086
:10B5D00019FB054600BF2E4626B100BF3046FEF7D8
:10B5E000C9FA00BF00BF00BF4046BDE8F0810000BF
:10B5F000BE2C0020E0480020BD2C0020A42C002000
:10B600002DE9F04188B004460E46174698462B486F
:10B6100007601EB9072008B0BDE8F081B08882B28B
:10B6200027483168FEF7C3FA054600BF284600B137
:10B63000F1E700BFB08982B22248B168FEF7B7FADD
:10B64000054600BF284600B1E5E700BF20221E499D
:10B650006846FAF71DFF60690690207C08B101205A
:10B6600000E000208DF814008DF81C80607C08B18B
:10B670000E2000E000208DF81500E0680290A06820
:10B6800003902068019060680090104A6946104855
:10B6900008F072FA054600BF284600B1BBE700BFBC
:10B6A00000200C4908702068401C28B101220A497A
:10B6B000074808F0A7FAAEE70020ACE7B82C002056
:10B6C000E0480020F0480020B8FF0300C9C803008C
:10B6D000A42C0020BE2C0020BD2C00202DE9F04120
:10B6E000054629461448FEF774FA064606BB134C75
:10B6F000002720781249085C20B1201D0BF0DEFDE8
:10B70000074608E020780E49085C20B904F10C00D7
:10B710000BF088FC074600BF57B90A490648FEF7F8
:10B7200037FA28B901220749044808F08DFA06467D
:10B730003046BDE8F0810000F0480020A42C002035
:10B74000602C0020BC2C002010B5044620460DF0D3
:10B7500077FC10BD70B5044625460E488068B0B130
:10B76000ADB9FDF799F906460A4800680A4908602C
:10B77000084840684FF0E021C1F804010020054965
:10B7800088601EB900BF62B600BF00BF00BF00BF27
:10B7900070BD00000049002000E100E070B50546E2
:10B7A0000C462068401C28B1206808F0A6FF2068DD
:10B7B00008F072FF6068401C18B10021606808F052
:10B7C00051FF2868A169C0F8241500BF617D227D62
:10B7D000286841EA0203C0F86C3500BFD4E90012C2
:10B7E00028680AF03EF8207D012814D1A068401C8A
:10B7F00018B10021A06808F035FFE068401C28B1AE
:10B80000E06808F07AFFE06808F046FFD4E902211A
:10B8100028680AF00FF870BD70B505460C46206820
:10B82000401C28B1206808F073FF206808F040FF32
:10B830006068401C18B10021606808F020FF28688B
:10B84000A169C0F8241500BF617D227D286841EA06
:10B850000203C0F86C3500BFD4E9001228680AF072
:10B8600033F8207D012814D1A068401C18B10021B4
:10B87000A06808F004FFE068401C28B1E06808F008
:10B8800047FFE06808F014FFD4E9022128680AF0B5
:10B8900001F870BD10B5044600225021201D0EF0A5
:10B8A000A5FF10BD70B504462068401C48B1204675
:10B8B000FFF7F0FF05462068A84201D1012070BDC6
:10B8C00000BF0020FBE70000002114E00C48D0F886
:10B8D0001024012308E000BFD0680079884201D11C
:10B8E000002303E0D0680268002AF4D100BF0BB146
:10B8F00008467047491C0A29E8DB4FF0FF30F8E79B
:10B90000B04C002010B578210148FAF7DAFD10BDDF
:10B910009C4600202DE9F04104460F46154615B916
:10B920000E20BDE8F0810020286000BF0CB90E2079
:10B93000F7E700BF00BF206808B90E20F1E700BF9D
:10B9400000BFE088C11700EB91718910A0EB810165
:10B9500009B10720E5E700BF384600F0C3F8C6B2DA
:10B96000142E01D10520DCE72079B04201DC04204F
:10B97000D7E7E188206806FB010028600020D0E7B7
:10B9800030B504460D4604B10AB9002030BD00218F
:10B9900003E0605C401C084481B21088884203DCEC
:10B9A000481C205C984201D0A942F2DBA94201DB8D
:10B9B0000020EBE7881C1080605C401E80B2E5E749
:10B9C0002DE9F04788B004460E4617460020079040
:10B9D00010200690B24602AA06A9384664DF8146C6
:10B9E00014B1B9F1000F03D0002008B0BDE8F08712
:10B9F0009DF81800022804D0042809D0102815D179
:10BA00000DE003208DF8040002208DF805000FE002
:10BA100005208DF8040004208DF8050008E00720BB
:10BA20008DF8040006208DF8050001E00020DCE719
:10BA300000BF002509E001A8435D07AA3146204662
:10BA4000FFF79EFF8246681CC5B2022D03DABDF8DF
:10BA50001C000028EFD0BDF81C0008B90020C4E786
:10BA6000BDF81C0004EB000800250DE008EB050004
:10BA70009DF8182002A9FAF754FD08B90120B4E78F
:10BA80009DF81800284485B25545EFDB0020ACE74F
:10BA9000F8B504460F4600254FF6FF7000900026CB
:10BAA000E07AA17A40EA012505F10D00FF2801DDC9
:10BAB0000120F8BD05F10C0081B26A4620460EF067
:10BAC00075FE064605F10D00215C401E205C41EA32
:10BAD00000200090BDF80000B04201D10020E8E74E
